{
  "contractName": "ItemManager",
  "abi": [
    {
      "anonymous": false,
      "inputs": [
        {
          "indexed": false,
          "internalType": "uint256",
          "name": "_itemIndex",
          "type": "uint256"
        },
        {
          "indexed": false,
          "internalType": "uint256",
          "name": "_step",
          "type": "uint256"
        },
        {
          "indexed": false,
          "internalType": "address",
          "name": "_itemAddress",
          "type": "address"
        }
      ],
      "name": "SupplyChainStep",
      "type": "event"
    },
    {
      "inputs": [],
      "name": "isOwner",
      "outputs": [
        {
          "internalType": "bool",
          "name": "",
          "type": "bool"
        }
      ],
      "stateMutability": "view",
      "type": "function",
      "constant": true
    },
    {
      "inputs": [],
      "name": "itemIndex",
      "outputs": [
        {
          "internalType": "uint256",
          "name": "",
          "type": "uint256"
        }
      ],
      "stateMutability": "view",
      "type": "function",
      "constant": true
    },
    {
      "inputs": [
        {
          "internalType": "uint256",
          "name": "",
          "type": "uint256"
        }
      ],
      "name": "items",
      "outputs": [
        {
          "internalType": "contract Item",
          "name": "_item",
          "type": "address"
        },
        {
          "internalType": "string",
          "name": "_identifier",
          "type": "string"
        },
        {
          "internalType": "uint256",
          "name": "_itemPrice",
          "type": "uint256"
        },
        {
          "internalType": "enum ItemManager.SupplyChainState",
          "name": "_state",
          "type": "uint8"
        }
      ],
      "stateMutability": "view",
      "type": "function",
      "constant": true
    },
    {
      "inputs": [
        {
          "internalType": "string",
          "name": "_identifier",
          "type": "string"
        },
        {
          "internalType": "uint256",
          "name": "_itemPrice",
          "type": "uint256"
        }
      ],
      "name": "createItem",
      "outputs": [],
      "stateMutability": "nonpayable",
      "type": "function"
    },
    {
      "inputs": [
        {
          "internalType": "uint256",
          "name": "_itemIndex",
          "type": "uint256"
        }
      ],
      "name": "triggerPayment",
      "outputs": [],
      "stateMutability": "payable",
      "type": "function",
      "payable": true
    },
    {
      "inputs": [
        {
          "internalType": "uint256",
          "name": "_itemIndex",
          "type": "uint256"
        }
      ],
      "name": "triggerDelivery",
      "outputs": [],
      "stateMutability": "nonpayable",
      "type": "function"
    }
  ],
  "bytecode": "0x608060405234801561001057600080fd5b50336000806101000a81548173ffffffffffffffffffffffffffffffffffffffff021916908373ffffffffffffffffffffffffffffffffffffffff160217905550611873806100606000396000f3fe6080604052600436106200005c5760003560e01c8063800fb83f14620000615780638c55174214620000815780638f32d59b14620000af578063bfb231d214620000df578063cd31831e1462000126578063e07bb1a71462000154575b600080fd5b6200007f600480360381019062000079919062000995565b62000184565b005b3480156200008e57600080fd5b50620000ad6004803603810190620000a7919062000b29565b62000361565b005b348015620000bc57600080fd5b50620000c76200056f565b604051620000d6919062000bac565b60405180910390f35b348015620000ec57600080fd5b506200010b600480360381019062000105919062000995565b620005c6565b6040516200011d949392919062000d78565b60405180910390f35b3480156200013357600080fd5b506200015260048036038101906200014c919062000995565b620006b3565b005b3480156200016157600080fd5b506200016c62000882565b6040516200017b919062000dcc565b60405180910390f35b34600160008381526020019081526020016000206002015414620001df576040517f08c379a0000000000000000000000000000000000000000000000000000000008152600401620001d69062000e39565b60405180910390fd5b60006002811115620001f657620001f562000cf8565b5b6001600083815260200190815260200160002060030160009054906101000a900460ff1660028111156200022f576200022e62000cf8565b5b1462000272576040517f08c379a0000000000000000000000000000000000000000000000000000000008152600401620002699062000eab565b60405180910390fd5b600180600083815260200190815260200160002060030160006101000a81548160ff02191690836002811115620002ae57620002ad62000cf8565b5b02179055507fa4035636e99f06b7651a604c1019fa4e8779fe68ef27eeb74dff2de348f6199b816001600084815260200190815260200160002060030160009054906101000a900460ff1660028111156200030e576200030d62000cf8565b5b6001600085815260200190815260200160002060000160009054906101000a900473ffffffffffffffffffffffffffffffffffffffff16604051620003569392919062000ef2565b60405180910390a150565b6200036b6200056f565b620003ad576040517f08c379a0000000000000000000000000000000000000000000000000000000008152600401620003a49062000f7f565b60405180910390fd5b60003082600254604051620003c29062000888565b620003d09392919062000fda565b604051809103906000f080158015620003ed573d6000803e3d6000fd5b5090508060016000600254815260200190815260200160002060000160006101000a81548173ffffffffffffffffffffffffffffffffffffffff021916908373ffffffffffffffffffffffffffffffffffffffff1602179055508260016000600254815260200190815260200160002060010190805190602001906200047592919062000896565b508160016000600254815260200190815260200160002060020181905550600060016000600254815260200190815260200160002060030160006101000a81548160ff02191690836002811115620004d257620004d162000cf8565b5b02179055507fa4035636e99f06b7651a604c1019fa4e8779fe68ef27eeb74dff2de348f6199b60025460016000600254815260200190815260200160002060030160009054906101000a900460ff16600281111562000536576200053562000cf8565b5b83604051620005489392919062000ef2565b60405180910390a160026000815480929190620005659062001046565b9190505550505050565b60008060009054906101000a900473ffffffffffffffffffffffffffffffffffffffff1673ffffffffffffffffffffffffffffffffffffffff163373ffffffffffffffffffffffffffffffffffffffff1614905090565b60016020528060005260406000206000915090508060000160009054906101000a900473ffffffffffffffffffffffffffffffffffffffff16908060010180546200061190620010c3565b80601f01602080910402602001604051908101604052809291908181526020018280546200063f90620010c3565b8015620006905780601f10620006645761010080835404028352916020019162000690565b820191906000526020600020905b8154815290600101906020018083116200067257829003601f168201915b5050505050908060020154908060030160009054906101000a900460ff16905084565b620006bd6200056f565b620006ff576040517f08c379a0000000000000000000000000000000000000000000000000000000008152600401620006f69062000f7f565b60405180910390fd5b6001600281111562000716576200071562000cf8565b5b6001600083815260200190815260200160002060030160009054906101000a900460ff1660028111156200074f576200074e62000cf8565b5b1462000792576040517f08c379a0000000000000000000000000000000000000000000000000000000008152600401620007899062000eab565b60405180910390fd5b60026001600083815260200190815260200160002060030160006101000a81548160ff02191690836002811115620007cf57620007ce62000cf8565b5b02179055507fa4035636e99f06b7651a604c1019fa4e8779fe68ef27eeb74dff2de348f6199b816001600084815260200190815260200160002060030160009054906101000a900460ff1660028111156200082f576200082e62000cf8565b5b6001600085815260200190815260200160002060000160009054906101000a900473ffffffffffffffffffffffffffffffffffffffff16604051620008779392919062000ef2565b60405180910390a150565b60025481565b61074480620010fa83390190565b828054620008a490620010c3565b90600052602060002090601f016020900481019282620008c8576000855562000914565b82601f10620008e357805160ff191683800117855562000914565b8280016001018555821562000914579182015b8281111562000913578251825591602001919060010190620008f6565b5b50905062000923919062000927565b5090565b5b808211156200094257600081600090555060010162000928565b5090565b6000604051905090565b600080fd5b600080fd5b6000819050919050565b6200096f816200095a565b81146200097b57600080fd5b50565b6000813590506200098f8162000964565b92915050565b600060208284031215620009ae57620009ad62000950565b5b6000620009be848285016200097e565b91505092915050565b600080fd5b600080fd5b6000601f19601f8301169050919050565b7f4e487b7100000000000000000000000000000000000000000000000000000000600052604160045260246000fd5b62000a1c82620009d1565b810181811067ffffffffffffffff8211171562000a3e5762000a3d620009e2565b5b80604052505050565b600062000a5362000946565b905062000a61828262000a11565b919050565b600067ffffffffffffffff82111562000a845762000a83620009e2565b5b62000a8f82620009d1565b9050602081019050919050565b82818337600083830152505050565b600062000ac262000abc8462000a66565b62000a47565b90508281526020810184848401111562000ae15762000ae0620009cc565b5b62000aee84828562000a9c565b509392505050565b600082601f83011262000b0e5762000b0d620009c7565b5b813562000b2084826020860162000aab565b91505092915050565b6000806040838503121562000b435762000b4262000950565b5b600083013567ffffffffffffffff81111562000b645762000b6362000955565b5b62000b728582860162000af6565b925050602062000b85858286016200097e565b9150509250929050565b60008115159050919050565b62000ba68162000b8f565b82525050565b600060208201905062000bc3600083018462000b9b565b92915050565b600073ffffffffffffffffffffffffffffffffffffffff82169050919050565b6000819050919050565b600062000c1462000c0e62000c088462000bc9565b62000be9565b62000bc9565b9050919050565b600062000c288262000bf3565b9050919050565b600062000c3c8262000c1b565b9050919050565b62000c4e8162000c2f565b82525050565b600081519050919050565b600082825260208201905092915050565b60005b8381101562000c9057808201518184015260208101905062000c73565b8381111562000ca0576000848401525b50505050565b600062000cb38262000c54565b62000cbf818562000c5f565b935062000cd181856020860162000c70565b62000cdc81620009d1565b840191505092915050565b62000cf2816200095a565b82525050565b7f4e487b7100000000000000000000000000000000000000000000000000000000600052602160045260246000fd5b6003811062000d3b5762000d3a62000cf8565b5b50565b600081905062000d4e8262000d27565b919050565b600062000d608262000d3e565b9050919050565b62000d728162000d53565b82525050565b600060808201905062000d8f600083018762000c43565b818103602083015262000da3818662000ca6565b905062000db4604083018562000ce7565b62000dc3606083018462000d67565b95945050505050565b600060208201905062000de3600083018462000ce7565b92915050565b7f4f6e6c792066756c6c207061796d656e74732061636365707465642100000000600082015250565b600062000e21601c8362000c5f565b915062000e2e8262000de9565b602082019050919050565b6000602082019050818103600083015262000e548162000e12565b9050919050565b7f4974656d206973206675727468657220696e2074686520636861696e21000000600082015250565b600062000e93601d8362000c5f565b915062000ea08262000e5b565b602082019050919050565b6000602082019050818103600083015262000ec68162000e84565b9050919050565b600062000eda8262000bc9565b9050919050565b62000eec8162000ecd565b82525050565b600060608201905062000f09600083018662000ce7565b62000f18602083018562000ce7565b62000f27604083018462000ee1565b949350505050565b7f596f7520617265206e6f7420746865206f776e65722100000000000000000000600082015250565b600062000f6760168362000c5f565b915062000f748262000f2f565b602082019050919050565b6000602082019050818103600083015262000f9a8162000f58565b9050919050565b600062000fae8262000bf3565b9050919050565b600062000fc28262000fa1565b9050919050565b62000fd48162000fb5565b82525050565b600060608201905062000ff1600083018662000fc9565b62001000602083018562000ce7565b6200100f604083018462000ce7565b949350505050565b7f4e487b7100000000000000000000000000000000000000000000000000000000600052601160045260246000fd5b600062001053826200095a565b91507fffffffffffffffffffffffffffffffffffffffffffffffffffffffffffffffff82141562001089576200108862001017565b5b600182019050919050565b7f4e487b7100000000000000000000000000000000000000000000000000000000600052602260045260246000fd5b60006002820490506001821680620010dc57607f821691505b60208210811415620010f357620010f262001094565b5b5091905056fe608060405234801561001057600080fd5b5060405161074438038061074483398181016040528101906100329190610134565b816000819055508060028190555082600360006101000a81548173ffffffffffffffffffffffffffffffffffffffff021916908373ffffffffffffffffffffffffffffffffffffffff160217905550505050610187565b600080fd5b600073ffffffffffffffffffffffffffffffffffffffff82169050919050565b60006100b98261008e565b9050919050565b60006100cb826100ae565b9050919050565b6100db816100c0565b81146100e657600080fd5b50565b6000815190506100f8816100d2565b92915050565b6000819050919050565b610111816100fe565b811461011c57600080fd5b50565b60008151905061012e81610108565b92915050565b60008060006060848603121561014d5761014c610089565b5b600061015b868287016100e9565b935050602061016c8682870161011f565b925050604061017d8682870161011f565b9150509250925092565b6105ae806101966000396000f3fe6080604052600436106100385760003560e01c80632986c0e5146102465780633c8da5881461027157806389794d001461029c57610241565b3661024157600060015414610082576040517f08c379a000000000000000000000000000000000000000000000000000000000815260040161007990610336565b60405180910390fd5b34600054146100c6576040517f08c379a00000000000000000000000000000000000000000000000000000000081526004016100bd906103a2565b60405180910390fd5b34600160008282546100d891906103fb565b925050819055506000600360009054906101000a900473ffffffffffffffffffffffffffffffffffffffff1673ffffffffffffffffffffffffffffffffffffffff163460025460405160240161012e9190610460565b6040516020818303038152906040527fbe40e4d4000000000000000000000000000000000000000000000000000000007bffffffffffffffffffffffffffffffffffffffffffffffffffffffff19166020820180517bffffffffffffffffffffffffffffffffffffffffffffffffffffffff83818316178352505050506040516101b891906104f5565b60006040518083038185875af1925050503d80600081146101f5576040519150601f19603f3d011682016040523d82523d6000602084013e6101fa565b606091505b505090508061023e576040517f08c379a000000000000000000000000000000000000000000000000000000000815260040161023590610558565b60405180910390fd5b50005b600080fd5b34801561025257600080fd5b5061025b6102c7565b6040516102689190610460565b60405180910390f35b34801561027d57600080fd5b506102866102cd565b6040516102939190610460565b60405180910390f35b3480156102a857600080fd5b506102b16102d3565b6040516102be9190610460565b60405180910390f35b60025481565b60005481565b60015481565b600082825260208201905092915050565b7f4974656d206973207061696420616c7265616479210000000000000000000000600082015250565b60006103206015836102d9565b915061032b826102ea565b602082019050919050565b6000602082019050818103600083015261034f81610313565b9050919050565b7f4f6e6c792066756c6c207061796d656e747320616c6c6f776564000000000000600082015250565b600061038c601a836102d9565b915061039782610356565b602082019050919050565b600060208201905081810360008301526103bb8161037f565b9050919050565b6000819050919050565b7f4e487b7100000000000000000000000000000000000000000000000000000000600052601160045260246000fd5b6000610406826103c2565b9150610411836103c2565b9250827fffffffffffffffffffffffffffffffffffffffffffffffffffffffffffffffff03821115610446576104456103cc565b5b828201905092915050565b61045a816103c2565b82525050565b60006020820190506104756000830184610451565b92915050565b600081519050919050565b600081905092915050565b60005b838110156104af578082015181840152602081019050610494565b838111156104be576000848401525b50505050565b60006104cf8261047b565b6104d98185610486565b93506104e9818560208601610491565b80840191505092915050565b600061050182846104c4565b915081905092915050565b7f44656c697665727920646964206e6f7420776f726b0000000000000000000000600082015250565b60006105426015836102d9565b915061054d8261050c565b602082019050919050565b6000602082019050818103600083015261057181610535565b905091905056fea2646970667358221220f41b147a0de94c4616f7aeb9db36c6bcdf39ab5ebf3d5d0eba5e0b5e36cb70a464736f6c634300080b0033a26469706673582212202579cecb13934eb67f20b5370bf80c1d837acde0707e988c12597a014f19e94164736f6c634300080b0033",
  "immutableReferences": {},
  "source": "// SPDX-License-Identifier: MIT\npragma solidity ^0.8.11;\n\nimport \"./Item.sol\";\nimport \"./Ownable.sol\";\n\ncontract ItemManager is Ownable {\n    enum SupplyChainState {\n        Created,\n        Paid,\n        Delivered\n    }\n\n    struct S_Item {\n        Item _item;\n        string _identifier;\n        uint256 _itemPrice;\n        ItemManager.SupplyChainState _state;\n    }\n\n    mapping(uint256 => S_Item) public items;\n    uint256 public itemIndex;\n\n    event SupplyChainStep(\n        uint256 _itemIndex,\n        uint256 _step,\n        address _itemAddress\n    );\n\n    function createItem(string memory _identifier, uint256 _itemPrice)\n        public\n        onlyOwner\n    {\n        Item item = new Item(this, _itemPrice, itemIndex);\n        items[itemIndex]._item = item;\n        items[itemIndex]._identifier = _identifier;\n        items[itemIndex]._itemPrice = _itemPrice;\n        items[itemIndex]._state = SupplyChainState.Created;\n\n        emit SupplyChainStep(\n            itemIndex,\n            uint256(items[itemIndex]._state),\n            address(item)\n        );\n\n        itemIndex++;\n    }\n\n    function triggerPayment(uint256 _itemIndex) public payable {\n        require(\n            items[_itemIndex]._itemPrice == msg.value,\n            \"Only full payments accepted!\"\n        );\n        require(\n            items[_itemIndex]._state == SupplyChainState.Created,\n            \"Item is further in the chain!\"\n        );\n        items[_itemIndex]._state = SupplyChainState.Paid;\n\n        emit SupplyChainStep(\n            _itemIndex,\n            uint256(items[_itemIndex]._state),\n            address(items[_itemIndex]._item)\n        );\n    }\n\n    function triggerDelivery(uint256 _itemIndex) public onlyOwner {\n        require(\n            items[_itemIndex]._state == SupplyChainState.Paid,\n            \"Item is further in the chain!\"\n        );\n        items[_itemIndex]._state = SupplyChainState.Delivered;\n\n        emit SupplyChainStep(\n            _itemIndex,\n            uint256(items[_itemIndex]._state),\n            address(items[_itemIndex]._item)\n        );\n    }\n}\n",
  "sourcePath": "/Users/navinalang/eventtrigger/contracts/ItemManager.sol",
  "compiler": {
    "name": "solc",
    "version": "0.8.11+commit.d7f03943.Emscripten.clang"
  },
  "schemaVersion": "3.4.4",
  "updatedAt": "2022-01-31T22:58:51.780Z",
  "networkType": "ethereum",
  "devdoc": {
    "kind": "dev",
    "methods": {},
    "version": 1
  },
  "userdoc": {
    "kind": "user",
    "methods": {},
    "version": 1
  }
}